{
  "_format": "hh-sol-artifact-1",
  "contractName": "Lottery",
  "sourceName": "contracts/Lottery.sol",
  "abi": [
    {
      "inputs": [
        {
          "internalType": "address",
          "name": "vrfCoordinatorV2",
          "type": "address"
        },
        {
          "internalType": "uint256",
          "name": "entranceFee",
          "type": "uint256"
        },
        {
          "internalType": "bytes32",
          "name": "gasLane",
          "type": "bytes32"
        },
        {
          "internalType": "uint64",
          "name": "subscriptionId",
          "type": "uint64"
        },
        {
          "internalType": "uint32",
          "name": "callbackGasLimit",
          "type": "uint32"
        },
        {
          "internalType": "uint256",
          "name": "interval",
          "type": "uint256"
        }
      ],
      "stateMutability": "nonpayable",
      "type": "constructor"
    },
    {
      "inputs": [],
      "name": "Lottery__RaffleNotOpen",
      "type": "error"
    },
    {
      "inputs": [],
      "name": "Lottery__SendMoreToEnterLottery",
      "type": "error"
    },
    {
      "inputs": [],
      "name": "Lottery__TransferFaild",
      "type": "error"
    },
    {
      "inputs": [
        {
          "internalType": "uint256",
          "name": "currentBalance",
          "type": "uint256"
        },
        {
          "internalType": "uint256",
          "name": "numPlayers",
          "type": "uint256"
        },
        {
          "internalType": "uint256",
          "name": "raffleState",
          "type": "uint256"
        }
      ],
      "name": "Lottery__UpkeepNotNeeded",
      "type": "error"
    },
    {
      "inputs": [
        {
          "internalType": "address",
          "name": "have",
          "type": "address"
        },
        {
          "internalType": "address",
          "name": "want",
          "type": "address"
        }
      ],
      "name": "OnlyCoordinatorCanFulfill",
      "type": "error"
    },
    {
      "anonymous": false,
      "inputs": [
        {
          "indexed": true,
          "internalType": "address",
          "name": "player",
          "type": "address"
        }
      ],
      "name": "RaffleEnter",
      "type": "event"
    },
    {
      "anonymous": false,
      "inputs": [
        {
          "indexed": true,
          "internalType": "uint256",
          "name": "requestId",
          "type": "uint256"
        }
      ],
      "name": "RequsedRaffleWinner",
      "type": "event"
    },
    {
      "anonymous": false,
      "inputs": [
        {
          "indexed": true,
          "internalType": "address",
          "name": "winner",
          "type": "address"
        }
      ],
      "name": "WinnerPicked",
      "type": "event"
    },
    {
      "inputs": [
        {
          "internalType": "bytes",
          "name": "",
          "type": "bytes"
        }
      ],
      "name": "checkUpkeep",
      "outputs": [
        {
          "internalType": "bool",
          "name": "upkeepNeeded",
          "type": "bool"
        },
        {
          "internalType": "bytes",
          "name": "",
          "type": "bytes"
        }
      ],
      "stateMutability": "view",
      "type": "function"
    },
    {
      "inputs": [],
      "name": "enterRaffle",
      "outputs": [],
      "stateMutability": "payable",
      "type": "function"
    },
    {
      "inputs": [],
      "name": "getEntranceFee",
      "outputs": [
        {
          "internalType": "uint256",
          "name": "",
          "type": "uint256"
        }
      ],
      "stateMutability": "view",
      "type": "function"
    },
    {
      "inputs": [],
      "name": "getInterval",
      "outputs": [
        {
          "internalType": "uint256",
          "name": "",
          "type": "uint256"
        }
      ],
      "stateMutability": "view",
      "type": "function"
    },
    {
      "inputs": [],
      "name": "getLastTimestamp",
      "outputs": [
        {
          "internalType": "uint256",
          "name": "",
          "type": "uint256"
        }
      ],
      "stateMutability": "view",
      "type": "function"
    },
    {
      "inputs": [],
      "name": "getNumWords",
      "outputs": [
        {
          "internalType": "uint256",
          "name": "",
          "type": "uint256"
        }
      ],
      "stateMutability": "pure",
      "type": "function"
    },
    {
      "inputs": [],
      "name": "getNumberOfPlayers",
      "outputs": [
        {
          "internalType": "uint256",
          "name": "",
          "type": "uint256"
        }
      ],
      "stateMutability": "view",
      "type": "function"
    },
    {
      "inputs": [
        {
          "internalType": "uint256",
          "name": "index",
          "type": "uint256"
        }
      ],
      "name": "getPlayer",
      "outputs": [
        {
          "internalType": "address",
          "name": "",
          "type": "address"
        }
      ],
      "stateMutability": "view",
      "type": "function"
    },
    {
      "inputs": [],
      "name": "getRaffleState",
      "outputs": [
        {
          "internalType": "enum Lottery.RaffleState",
          "name": "",
          "type": "uint8"
        }
      ],
      "stateMutability": "view",
      "type": "function"
    },
    {
      "inputs": [],
      "name": "getRequestConfirmations",
      "outputs": [
        {
          "internalType": "uint256",
          "name": "",
          "type": "uint256"
        }
      ],
      "stateMutability": "pure",
      "type": "function"
    },
    {
      "inputs": [],
      "name": "getsRecentWinner",
      "outputs": [
        {
          "internalType": "address",
          "name": "",
          "type": "address"
        }
      ],
      "stateMutability": "view",
      "type": "function"
    },
    {
      "inputs": [
        {
          "internalType": "bytes",
          "name": "",
          "type": "bytes"
        }
      ],
      "name": "performUpkeep",
      "outputs": [],
      "stateMutability": "nonpayable",
      "type": "function"
    },
    {
      "inputs": [
        {
          "internalType": "uint256",
          "name": "requestId",
          "type": "uint256"
        },
        {
          "internalType": "uint256[]",
          "name": "randomWords",
          "type": "uint256[]"
        }
      ],
      "name": "rawFulfillRandomWords",
      "outputs": [],
      "stateMutability": "nonpayable",
      "type": "function"
    }
  ],
  "bytecode": "0x61016060405234801561001157600080fd5b5060405161180a38038061180a83398181016040528101906100339190610270565b858073ffffffffffffffffffffffffffffffffffffffff1660808173ffffffffffffffffffffffffffffffffffffffff1681525050508460a081815250508573ffffffffffffffffffffffffffffffffffffffff1660c08173ffffffffffffffffffffffffffffffffffffffff16815250508360e081815250508267ffffffffffffffff166101008167ffffffffffffffff16815250508163ffffffff166101208163ffffffff16815250506000600360006101000a81548160ff02191690836001811115610105576101046102fd565b5b02179055504260028190555080610140818152505050505050505061032c565b600080fd5b600073ffffffffffffffffffffffffffffffffffffffff82169050919050565b60006101558261012a565b9050919050565b6101658161014a565b811461017057600080fd5b50565b6000815190506101828161015c565b92915050565b6000819050919050565b61019b81610188565b81146101a657600080fd5b50565b6000815190506101b881610192565b92915050565b6000819050919050565b6101d1816101be565b81146101dc57600080fd5b50565b6000815190506101ee816101c8565b92915050565b600067ffffffffffffffff82169050919050565b610211816101f4565b811461021c57600080fd5b50565b60008151905061022e81610208565b92915050565b600063ffffffff82169050919050565b61024d81610234565b811461025857600080fd5b50565b60008151905061026a81610244565b92915050565b60008060008060008060c0878903121561028d5761028c610125565b5b600061029b89828a01610173565b96505060206102ac89828a016101a9565b95505060406102bd89828a016101df565b94505060606102ce89828a0161021f565b93505060806102df89828a0161025b565b92505060a06102f089828a016101a9565b9150509295509295509295565b7f4e487b7100000000000000000000000000000000000000000000000000000000600052602160045260246000fd5b60805160a05160c05160e05161010051610120516101405161146f61039b600039600081816107e80152610891015260006106d0015260006106ad0152600061068c015260006106500152600081816102fa015261042101526000818161036101526103b5015261146f6000f3fe6080604052600436106100c25760003560e01c80634585e33b1161007f5780636e04ff0d116100595780636e04ff0d1461022557806391ad27b414610263578063e55ae4e81461028e578063fd6673f5146102cb576100c2565b80634585e33b146101a657806353a2c19a146101cf5780635f1b0fd8146101fa576100c2565b806309bc33a7146100c7578063115cbaf5146100f25780631d5ab6ab1461011d5780631fe543e3146101485780632cfcc53914610171578063378997701461017b575b600080fd5b3480156100d357600080fd5b506100dc6102f6565b6040516100e99190610bf9565b60405180910390f35b3480156100fe57600080fd5b5061010761031e565b6040516101149190610c8b565b60405180910390f35b34801561012957600080fd5b50610132610335565b60405161013f9190610ce7565b60405180910390f35b34801561015457600080fd5b5061016f600480360381019061016a9190610e9b565b61035f565b005b61017961041f565b005b34801561018757600080fd5b5061019061058e565b60405161019d9190610bf9565b60405180910390f35b3480156101b257600080fd5b506101cd60048036038101906101c89190610f52565b610598565b005b3480156101db57600080fd5b506101e4610789565b6040516101f19190610bf9565b60405180910390f35b34801561020657600080fd5b5061020f610798565b60405161021c9190610bf9565b60405180910390f35b34801561023157600080fd5b5061024c60048036038101906102479190611054565b6107a5565b60405161025a929190611137565b60405180910390f35b34801561026f57600080fd5b5061027861088d565b6040516102859190610bf9565b60405180910390f35b34801561029a57600080fd5b506102b560048036038101906102b09190611167565b6108b5565b6040516102c29190610ce7565b60405180910390f35b3480156102d757600080fd5b506102e06108fc565b6040516102ed9190610bf9565b60405180910390f35b60007f0000000000000000000000000000000000000000000000000000000000000000905090565b6000600360009054906101000a900460ff16905090565b6000600160009054906101000a900473ffffffffffffffffffffffffffffffffffffffff16905090565b7f000000000000000000000000000000000000000000000000000000000000000073ffffffffffffffffffffffffffffffffffffffff163373ffffffffffffffffffffffffffffffffffffffff161461041157337f00000000000000000000000000000000000000000000000000000000000000006040517f1cf993f4000000000000000000000000000000000000000000000000000000008152600401610408929190611194565b60405180910390fd5b61041b8282610908565b5050565b7f0000000000000000000000000000000000000000000000000000000000000000341015610479576040517fa4078c2400000000000000000000000000000000000000000000000000000000815260040160405180910390fd5b6000600181111561048d5761048c610c14565b5b600360009054906101000a900460ff1660018111156104af576104ae610c14565b5b146104e6576040517f9e0db89400000000000000000000000000000000000000000000000000000000815260040160405180910390fd5b6000339080600181540180825580915050600190039060005260206000200160009091909190916101000a81548173ffffffffffffffffffffffffffffffffffffffff021916908373ffffffffffffffffffffffffffffffffffffffff1602179055503373ffffffffffffffffffffffffffffffffffffffff167f0805e1d667bddb8a95f0f09880cf94f403fb596ce79928d9f29b74203ba284d460405160405180910390a2565b6000600254905090565b60006105b2604051806020016040528060008152506107a5565b509050806106215747600080549050600360009054906101000a900460ff1660018111156105e3576105e2610c14565b5b6040517f6e195f25000000000000000000000000000000000000000000000000000000008152600401610618939291906111bd565b60405180910390fd5b6001600360006101000a81548160ff0219169083600181111561064757610646610c14565b5b021790555060007f000000000000000000000000000000000000000000000000000000000000000073ffffffffffffffffffffffffffffffffffffffff16635d3b1d307f00000000000000000000000000000000000000000000000000000000000000007f000000000000000000000000000000000000000000000000000000000000000060037f000000000000000000000000000000000000000000000000000000000000000060016040518663ffffffff1660e01b815260040161071195949392919061126c565b6020604051808303816000875af1158015610730573d6000803e3d6000fd5b505050506040513d601f19601f8201168201806040525081019061075491906112d4565b9050807fd82e93cd0a2db0f267dd25fcf792b8f57a49713aa58bb5ae21a9a71190e514c460405160405180910390a250505050565b6000600163ffffffff16905090565b6000600361ffff16905090565b600060606000600360009054906101000a900460ff1660018111156107cd576107cc610c14565b5b600060018111156107e1576107e0610c14565b5b14905060007f0000000000000000000000000000000000000000000000000000000000000000600254426108159190611330565b119050600080600080549050119050600080471190508380156108355750825b801561083e5750815b80156108475750805b9550856040518060400160405280600381526020017f30783000000000000000000000000000000000000000000000000000000000008152509550955050505050915091565b60007f0000000000000000000000000000000000000000000000000000000000000000905090565b60008082815481106108ca576108c9611364565b5b9060005260206000200160009054906101000a900473ffffffffffffffffffffffffffffffffffffffff169050919050565b60008080549050905090565b600080805490508260008151811061092357610922611364565b5b602002602001015161093591906113c2565b9050600080828154811061094c5761094b611364565b5b9060005260206000200160009054906101000a900473ffffffffffffffffffffffffffffffffffffffff16905080600160006101000a81548173ffffffffffffffffffffffffffffffffffffffff021916908373ffffffffffffffffffffffffffffffffffffffff1602179055506000600360006101000a81548160ff021916908360018111156109e0576109df610c14565b5b0217905550600067ffffffffffffffff811115610a00576109ff610d58565b5b604051908082528060200260200182016040528015610a2e5781602001602082028036833780820191505090505b5060009080519060200190610a44929190610b39565b504260028190555060008173ffffffffffffffffffffffffffffffffffffffff1647604051610a7290611424565b60006040518083038185875af1925050503d8060008114610aaf576040519150601f19603f3d011682016040523d82523d6000602084013e610ab4565b606091505b5050905080610aef576040517f02ec7f2200000000000000000000000000000000000000000000000000000000815260040160405180910390fd5b8173ffffffffffffffffffffffffffffffffffffffff167f5b690ec4a06fe979403046eaeea5b3ce38524683c3001f662c8b5a829632f7df60405160405180910390a25050505050565b828054828255906000526020600020908101928215610bb2579160200282015b82811115610bb15782518260006101000a81548173ffffffffffffffffffffffffffffffffffffffff021916908373ffffffffffffffffffffffffffffffffffffffff16021790555091602001919060010190610b59565b5b509050610bbf9190610bc3565b5090565b5b80821115610bdc576000816000905550600101610bc4565b5090565b6000819050919050565b610bf381610be0565b82525050565b6000602082019050610c0e6000830184610bea565b92915050565b7f4e487b7100000000000000000000000000000000000000000000000000000000600052602160045260246000fd5b60028110610c5457610c53610c14565b5b50565b6000819050610c6582610c43565b919050565b6000610c7582610c57565b9050919050565b610c8581610c6a565b82525050565b6000602082019050610ca06000830184610c7c565b92915050565b600073ffffffffffffffffffffffffffffffffffffffff82169050919050565b6000610cd182610ca6565b9050919050565b610ce181610cc6565b82525050565b6000602082019050610cfc6000830184610cd8565b92915050565b6000604051905090565b600080fd5b600080fd5b610d1f81610be0565b8114610d2a57600080fd5b50565b600081359050610d3c81610d16565b92915050565b600080fd5b6000601f19601f8301169050919050565b7f4e487b7100000000000000000000000000000000000000000000000000000000600052604160045260246000fd5b610d9082610d47565b810181811067ffffffffffffffff82111715610daf57610dae610d58565b5b80604052505050565b6000610dc2610d02565b9050610dce8282610d87565b919050565b600067ffffffffffffffff821115610dee57610ded610d58565b5b602082029050602081019050919050565b600080fd5b6000610e17610e1284610dd3565b610db8565b90508083825260208201905060208402830185811115610e3a57610e39610dff565b5b835b81811015610e635780610e4f8882610d2d565b845260208401935050602081019050610e3c565b5050509392505050565b600082601f830112610e8257610e81610d42565b5b8135610e92848260208601610e04565b91505092915050565b60008060408385031215610eb257610eb1610d0c565b5b6000610ec085828601610d2d565b925050602083013567ffffffffffffffff811115610ee157610ee0610d11565b5b610eed85828601610e6d565b9150509250929050565b600080fd5b60008083601f840112610f1257610f11610d42565b5b8235905067ffffffffffffffff811115610f2f57610f2e610ef7565b5b602083019150836001820283011115610f4b57610f4a610dff565b5b9250929050565b60008060208385031215610f6957610f68610d0c565b5b600083013567ffffffffffffffff811115610f8757610f86610d11565b5b610f9385828601610efc565b92509250509250929050565b600080fd5b600067ffffffffffffffff821115610fbf57610fbe610d58565b5b610fc882610d47565b9050602081019050919050565b82818337600083830152505050565b6000610ff7610ff284610fa4565b610db8565b90508281526020810184848401111561101357611012610f9f565b5b61101e848285610fd5565b509392505050565b600082601f83011261103b5761103a610d42565b5b813561104b848260208601610fe4565b91505092915050565b60006020828403121561106a57611069610d0c565b5b600082013567ffffffffffffffff81111561108857611087610d11565b5b61109484828501611026565b91505092915050565b60008115159050919050565b6110b28161109d565b82525050565b600081519050919050565b600082825260208201905092915050565b60005b838110156110f25780820151818401526020810190506110d7565b60008484015250505050565b6000611109826110b8565b61111381856110c3565b93506111238185602086016110d4565b61112c81610d47565b840191505092915050565b600060408201905061114c60008301856110a9565b818103602083015261115e81846110fe565b90509392505050565b60006020828403121561117d5761117c610d0c565b5b600061118b84828501610d2d565b91505092915050565b60006040820190506111a96000830185610cd8565b6111b66020830184610cd8565b9392505050565b60006060820190506111d26000830186610bea565b6111df6020830185610bea565b6111ec6040830184610bea565b949350505050565b6000819050919050565b611207816111f4565b82525050565b600067ffffffffffffffff82169050919050565b61122a8161120d565b82525050565b600061ffff82169050919050565b61124781611230565b82525050565b600063ffffffff82169050919050565b6112668161124d565b82525050565b600060a08201905061128160008301886111fe565b61128e6020830187611221565b61129b604083018661123e565b6112a8606083018561125d565b6112b5608083018461125d565b9695505050505050565b6000815190506112ce81610d16565b92915050565b6000602082840312156112ea576112e9610d0c565b5b60006112f8848285016112bf565b91505092915050565b7f4e487b7100000000000000000000000000000000000000000000000000000000600052601160045260246000fd5b600061133b82610be0565b915061134683610be0565b925082820390508181111561135e5761135d611301565b5b92915050565b7f4e487b7100000000000000000000000000000000000000000000000000000000600052603260045260246000fd5b7f4e487b7100000000000000000000000000000000000000000000000000000000600052601260045260246000fd5b60006113cd82610be0565b91506113d883610be0565b9250826113e8576113e7611393565b5b828206905092915050565b600081905092915050565b50565b600061140e6000836113f3565b9150611419826113fe565b600082019050919050565b600061142f82611401565b915081905091905056fea26469706673582212204b89b62ce2ff75018a8003f079ce0ded507bbc5d311b6bf1ceef036a937d15d664736f6c634300081b0033",
  "linkReferences": {},
  "deployedLinkReferences": {}
}